:020000040800F2
:100000000000022079080008F5070008FD07000835
:10001000050800080D080008150800080000000089
:100020000000000000000000000000001D080008A3
:100030002B080008000000003908000847080008E5
:10004000C9080008C9080008C9080008C90800084C
:10005000C9080008C9080008C9080008C90800083C
:10006000C9080008C9080008C9080008C90800082C
:10007000C9080008C9080008C9080008C90800081C
:10008000C9080008C9080008C9080008C90800080C
:10009000C9080008C9080008C9080008C9080008FC
:1000A000C9080008C9080008C9080008C9080008EC
:1000B000C9080008C9080008C9080008C9080008DC
:1000C000C9080008C9080008C9080008C9080008CC
:1000D000C9080008C9080008C9080008C9080008BC
:1000E000C9080008C9080008C9080008C9080008AC
:1000F000C9080008C9080008C9080008C90800089C
:10010000C9080008C9080008C9080008C90800088B
:10011000C9080008C9080008C9080008C90800087B
:10012000C9080008C9080008C9080008C90800086B
:10013000C90800080000000000000000C90800080D
:10014000C9080008C9080008C9080008C90800084B
:10015000C9080008C9080008C9080008C90800083B
:10016000C9080008C9080008C9080008C90800082B
:10017000C9080008C9080008C908000800000000F4
:1001800000000000C9080008000000000000000096
:10019000C90800080000000000000000C9080008AD
:1001A000000000000000000000000000C908000876
:1001B000C9080008C9080008C9080008C9080008DB
:0401C000C908000862
:1001C40010B5054C237833B9044B13B10448AFF38D
:1001D40000800123237010BD1000002000000000E7
:1001E4001C23000808B5034B1BB103490348AFF3B4
:1001F400008008BD00000000140000201C2300083B
:1002040053B94AB9002908BF00281CBF4FF0FF3179
:100214004FF0FF3000F088B9ADF1080C6DE904CE61
:1002240000F006F8DDF804E0DDE9022304B07047CD
:100234002DE9F047089D8E4604468846002B4AD196
:100244008A42174662D9B2FA82F64EB1C6F1200349
:1002540001FA06F820FA03F3B74043EA0808B44069
:100264004FEA174E1FFA87FCB8FBFEF1230C0EFB76
:10027400118843EA084301FB0CF29A4209D9FB189E
:1002840001F1FF3080F0EA809A4240F2E7800239BF
:100294003B449A1AA3B2B2FBFEF00EFB102243EACF
:1002A400024300FB0CFC9C4509D9FB1800F1FF320A
:1002B40080F0D6809C4540F2D3803B44023840EA2B
:1002C4000140A3EB0C0300211DB1F3400022C5E95A
:1002D4000032BDE8F0878B4205D90DB1C5E90001B4
:1002E40000210846F5E7B3FA83F1002946D17345A6
:1002F40002D3824200F20581841A6EEB03020120CC
:100304009046002DE5D0C5E90048E2E7002A00F058
:100314009080B2FA82F6002E40F0A4808A1A030C70
:100324004FEA174E80B2BCB20121B2FBFEFC0EFBB9
:100334001C2243EA024304FB0CF29A4207D9FB183D
:100344000CF1FF3802D29A4200F2E080C4469B1AB4
:10035400B3FBFEF20EFB123340EA034302FB04F448
:100364009C4207D9FB1802F1FF3002D29C4200F2F2
:10037400CA8002461B1B42EA0C40A5E7C1F12006D5
:100384008B4022FA06F71F430EFA01F420FA06F313
:100394002EFA06FE4FEA1749234300FA01F81FFA22
:1003A40087FCBEFBF9F01C0C09FB10EE44EA0E447A
:1003B40000FB0CFEA64502FA01F209D93C1900F132
:1003C400FF3A80F09C80A64540F2998002383C4474
:1003D400A4EB0E041FFA83FEB4FBF9F309FB1344E8
:1003E4004EEA044403FB0CFCA44508D93C1903F170
:1003F400FF3E80F08280A4457FD9023B3C4443EA1F
:100404000040A4EB0C04A0FB02EC64457346E146F7
:1004140062D35FD05DB1B8EB030264EB090404FA64
:1004240006F622FA01F31E43CC40C5E9006400211C
:100434004FE7B1FBF2FC010C41EA0E4180B240EA05
:1004440001423B4638463C46B846BE462026B1FBF0
:10045400F7F1A2EB080241EA0C4166E7014618E70E
:1004640010462CE7C6F120022EFA02F3B740B14041
:1004740020FA02F24FEA174E0A43B3FBFEF8BCB26D
:100484000EFB1833110C41EA034108FB04F9B04098
:1004940089454FEA104380B23ED9791808F1FF3CF0
:1004A40001D289451FD8A1EB0901B1FBFEF909FB73
:1004B40004F80EFB191192B242EA0142424529D2D4
:1004C400BA1809F1FF31C4D24245C2D2A9F10201DE
:1004D4003A44BEE7F0459DD2BEEB02036CEB070C39
:1004E4000138E14696E7A7EB09094944A8F1020C53
:1004F400B1FBFEF909FB04F8DBE773467FE75046DE
:1005040066E70846FDE63B44023A33E7ACF1020CE9
:100514003B441CE749469CE7A1EB0901C446B1FBF7
:10052400FEF909FB04F8C4E7704700BF80B582B048
:1005340002AF00F0C9F900F01BF800F0B3F800F0C6
:1005440083F84FF47A7000F031FA4FF0FF330093E0
:100554000123054A1021054800F00AFE4FF47A7081
:1005640000F024FA00BFF0E7000000202C00002077
:1005740080B594B000AF07F11C0334220021184663
:1005840001F09EFE07F1080300221A605A609A6087
:10059400DA601A6100237B60294B1B6C284A43F004
:1005A40080531364264B1B6C03F080537B607B6881
:1005B40000233B60234B1B6823F44043214A43F44C
:1005C400004313601F4B1B6803F440433B603B68CC
:1005D4000123FB614FF480333B6202237B634FF4BE
:1005E4008003BB630823FB634FF4A8733B640423B9
:1005F4007B640723BB6407F11C03184601F0C2FBAC
:100604000346002B01D000F07DF80F23BB600223CA
:10061400FB6000233B614FF480537B610023BB618B
:1006240007F108030221184601F0FCF80346002BE9
:1006340001D000F067F800BF5037BD4680BD00BF51
:10064400003802400070004080B500AF124B134ADE
:100654001A60114B124A5A600F4B00229A600E4BDB
:100664000022DA600C4B4FF480421A610A4B0022DC
:100674005A61094B00229A61074B0022DA61064B4A
:1006840000221A62044800F02FFC0346002B01D01C
:1006940000F038F800BF80BD2C000020005400405A
:1006A400A086010080B586B000AF00233B60134BE9
:1006B4001B6B124A43F002031363104B1B6B03F0D2
:1006C40002033B603B683B1D00221A605A609A603B
:1006D400DA601A614FF440737B601223BB6000231D
:1006E400FB6003233B6104237B613B1D19460448E3
:1006F40000F066FA00BF1837BD4680BD00380240DE
:100704000004024080B400AF72B600BF00BFFDE732
:1007140080B483B000AF00237B60104B5B6C0F4A46
:1007240043F4804353640D4B5B6C03F480437B6060
:100734007B6800233B60094B1B6C084A43F08053E1
:100744001364064B1B6C03F080533B603B6800BF93
:100754000C37BD465DF8047B704700BF003802408B
:1007640080B58AB000AF786007F1140300221A60E4
:100774005A609A60DA601A617B681B68194A93426E
:100784002BD100233B61184B1B6B174A43F0020328
:100794001363154B1B6B03F002033B613B69C023DE
:1007A4007B611223BB610023FB6103233B620423AF
:1007B4007B6207F1140319460C4800F001FA002388
:1007C400FB60094B1B6C084A43F400131364064B8B
:1007D4001B6C03F40013FB60FB6800BF2837BD46A5
:1007E40080BD00BF005400400038024000040240B5
:1007F40080B400AF00BFFDE780B400AF00BFFDE7E9
:1008040080B400AF00BFFDE780B400AF00BFFDE7D8
:1008140080B400AF00BFFDE780B400AF00BFBD46A9
:100824005DF8047B704780B400AF00BFBD465DF83F
:10083400047B704780B400AF00BFBD465DF8047B05
:10084400704780B500AF00F091F800BF80BD000094
:1008540080B400AF064BD3F88830054A43F47003E4
:10086400C2F8883000BFBD465DF8047B704700BF06
:1008740000ED00E0DFF834D0FFF7EAFF0C480D4943
:100884000D4A002302E0D458C4500433C4188C42E7
:10089400F9D30A4A0A4C002301E013600432A2424D
:1008A400FBD301F015FDFFF741FE70470000022065
:1008B40000000020100000205C230008100000202D
:1008C40084000020FEE7000080B500AF0E4B1B68DB
:1008D4000D4A43F4007313600B4B1B680A4A43F43C
:1008E40080631360084B1B68074A43F480731360EA
:1008F400032000F031F90F2000F008F8FFF708FF9B
:100904000023184680BD00BF003C024080B582B081
:1009140000AF7860124B1A68124B1B7819464FF4DB
:100924007A73B3FBF1F3B2FBF3F3184600F03BF92F
:100934000346002B01D001230EE07B680F2B0AD85D
:10094400002279684FF0FF3000F011F9064A7B6805
:100954001360002300E0012318460837BD4680BD1C
:10096400040000200C0000200800002080B400AF28
:10097400064B1B781A46064B1B681344044A136043
:1009840000BFBD465DF8047B704700BF0C0000202B
:100994008000002080B400AF034B1B681846BD469E
:1009A4005DF8047B704700BF8000002080B584B0F0
:1009B40000AF7860FFF7EEFFB8607B68FB60FB6810
:1009C400B3F1FF3F05D00A4B1B781A46FB6813446A
:1009D400FB6000BFFFF7DEFF0246BB68D31AFA686C
:1009E4009A42F7D800BF00BF1037BD4680BD00BF94
:1009F4000C00002080B485B000AF78607B6803F001
:100A04000703FB600C4BDB68BB60BA684FF6FF035F
:100A14001340BB60FB681A02BB68134343F0BF6317
:100A240043F40033BB60044ABB68D36000BF14378F
:100A3400BD465DF8047B704700ED00E080B400AF74
:100A4400044BDB681B0A03F007031846BD465DF838
:100A5400047B704700ED00E080B483B000AF034630
:100A64003960FB7197F90730002B0ADB3B68DAB277
:100A74000C4997F907301201D2B20B4483F80023D2
:100A84000AE03B68DAB20849FB7903F00F03043B40
:100A94001201D2B20B441A7600BF0C37BD465DF882
:100AA400047B704700E100E000ED00E080B489B011
:100AB40000AFF860B9607A60FB6803F00703FB617C
:100AC400FB69C3F10703042B28BF0423BB61FB6943
:100AD4000433062B02D9FB69033B00E000237B614E
:100AE4004FF0FF32BB6902FA03F3DA43BB681A40E2
:100AF4007B699A404FF0FF317B6901FA03F3D943D4
:100B04007B680B40134318462437BD465DF8047BCD
:100B14007047000080B582B000AF78607B68013B0D
:100B2400B3F1807F01D301230FE00A4A7B68013BC4
:100B340053600F214FF0FF30FFF78EFF054B00226B
:100B44009A60044B07221A60002318460837BD46F2
:100B540080BD00BF10E000E080B582B000AF7860D7
:100B64007868FFF747FF00BF0837BD4680BD80B5F2
:100B740086B000AF0346B9607A60FB7300237B61E3
:100B8400FFF75CFF78617A68B9687869FFF78EFFD0
:100B9400024697F90F3011461846FFF75DFF00BF74
:100BA4001837BD4680BD80B582B000AF78607868E4
:100BB400FFF7B0FF034618460837BD4680BD000066
:100BC40080B489B000AF7860396000237B61002372
:100BD4003B610023BB610023FB6165E10122FB69EA
:100BE40002FA03F37B613B681B687A6913403B613B
:100BF4003A697B699A4240F054813B685B6803F030
:100C04000303012B05D03B685B6803F00303022B4D
:100C140030D17B689B68BB61FB695B00032202FAED
:100C240003F3DB43BA691340BB613B68DA68FB69D1
:100C34005B0002FA03F3BA691343BB617B68BA69C8
:100C44009A607B685B68BB610122FB6902FA03F36B
:100C5400DB43BA691340BB613B685B681B0903F063
:100C64000102FB6902FA03F3BA691343BB617B68AF
:100C7400BA695A603B685B6803F00303032B17D01F
:100C84007B68DB68BB61FB695B00032202FA03F348
:100C9400DB43BA691340BB613B689A68FB695B003C
:100CA40002FA03F3BA691343BB617B68BA69DA6079
:100CB4003B685B6803F00303022B23D1FB69DA086A
:100CC4007B68083253F82230BB61FB6903F00703E9
:100CD4009B000F2202FA03F3DB43BA691340BB61A2
:100CE4003B681A69FB6903F007039B0002FA03F3EC
:100CF400BA691343BB61FB69DA087B680832B969D6
:100D040043F822107B681B68BB61FB695B0003220C
:100D140002FA03F3DB43BA691340BB613B685B68C7
:100D240003F00302FB695B0002FA03F3BA6913439D
:100D3400BB617B68BA691A603B685B6803F4403343
:100D4400002B00F0AE800023FB605D4B5B6C5C4AC3
:100D540043F4804353645A4B5B6C03F48043FB605D
:100D6400FB68584AFB699B08023352F82330BB6185
:100D7400FB6903F003039B000F2202FA03F3DB4336
:100D8400BA691340BB617B684F4A934225D07B68A4
:100D94004E4A93421FD07B684D4A934219D07B68D8
:100DA4004C4A934213D07B684B4A93420DD07B68E4
:100DB4004A4A934207D07B68494A934201D10623A9
:100DC4000CE007230AE0052308E0042306E00323DC
:100DD40004E0022302E0012300E00023FA6902F0A8
:100DE400030292009340BA691343BB613549FB691E
:100DF4009B080233BA6941F823203A4B9B68BB61D4
:100E04003B69DB43BA691340BB613B685B6803F42D
:100E14008013002B03D0BA693B691343BB61314A89
:100E2400BB6993602F4BDB68BB613B69DB43BA69E9
:100E34001340BB613B685B6803F40013002B03D0D1
:100E4400BA693B691343BB61264ABB69D360254B2E
:100E54005B68BB613B69DB43BA691340BB613B68B8
:100E64005B6803F40033002B03D0BA693B69134376
:100E7400BB611C4ABB6953601A4B1B68BB613B696D
:100E8400DB43BA691340BB613B685B6803F480339E
:100E9400002B03D0BA693B691343BB61114ABB6998
:100EA4001360FB690133FB61FB690F2B7FF696AE80
:100EB40000BF00BF2437BD465DF8047B704700BF08
:100EC40000380240003801400000024000040240A3
:100ED40000080240000C02400010024000140240CE
:100EE40000180240003C014080B584B000AF786037
:100EF4007B68002B01D101232BE17B6893F83D3003
:100F0400DBB2002B06D17B68002283F83C20786892
:100F1400FFF726FC7B68242283F83D207B681B684E
:100F24001A687B681B6822F001021A607B681B68E0
:100F34001A687B681B6842F400421A607B681B686D
:100F44001A687B681B6822F400421A6000F05CFD9A
:100F5400F8607B685B68814A934207D8FB68804AE3
:100F6400934294BF01230023DBB206E0FB687D4A71
:100F7400934294BF01230023DBB2002B01D0012351
:100F8400E7E0FB68784AA2FB03239B0CBB607B6809
:100F94001B685B6823F03F017B681B68BA680A43DF
:100FA4005A607B681B681B6A23F03F017B685B689F
:100FB4006A4A934202D8BB68013309E0BB684FF424
:100FC400967202FB03F3694AA2FB03239B090133D4
:100FD4007A6812680B4313627B681B68DB6923F42D
:100FE4004F4222F0FF027B685B685C498B4219D850
:100FF400FB68591E7B685B685B00B1FBF3F3591C0B
:1010040040F6FC730B40002B0AD0FB68591E7B682A
:101014005B685B00B1FBF3F30133C3F30B0351E0F3
:1010240004234FE07B689B68002B11D1FB68581E9A
:101034007B6859680B465B000B44B0FBF3F3013348
:10104400C3F30B03002B0CBF01230023DBB212E01C
:10105400FB68581E7B6859680B469B000B4499003B
:101064000B44B0FBF3F30133C3F30B03002B0CBFAE
:1010740001230023DBB2002B01D0012322E07B6893
:101084009B68002B0ED1FB68581E7B6859680B4681
:101094005B000B44B0FBF3F30133C3F30B0343F4E2
:1010A40000430FE0FB68581E7B6859680B469B00A1
:1010B4000B4499000B44B0FBF3F30133C3F30B036C
:1010C40043F44043796809681343CB617B681B6828
:1010D4001B6823F0C0017B68DA697B681B6A1A43CA
:1010E4007B681B680A431A607B681B689B6823F44F
:1010F400034323F0FF037A6811697A68D2681143C5
:101104007A6812680B4393607B681B68DB6823F082
:10111400FF017B685A697B689B691A437B681B687B
:101124000A43DA607B681B681A687B681B6842F0B4
:1011340001021A607B6800221A647B68202283F80B
:101144003D207B6800221A637B68002283F83E20DE
:10115400002318461037BD4680BD00BFA08601009D
:101164007F841E00FF083D0083DE1B43D34D6210C5
:1011740080B588B002AFF8607A601A460B467B816E
:1011840013463B81FFF706FC7861FB6893F83D301A
:10119400DBB2202B40F0E0807B690093192301220D
:1011A4007049F86800F064F90346002B01D002236B
:1011B400D3E0FB6893F83C30012B01D10223CCE04F
:1011C400FB68012283F83C20FB681B681B6803F062
:1011D4000103012B07D0FB681B681A68FB681B68B6
:1011E40042F001021A60FB681B681A68FB681B68FE
:1011F40022F400621A60FB68212283F83D20FB6818
:10120400102283F83E20FB6800221A64FB687A6887
:101214005A62FB683A895A85FB685B8D9AB2FB680F
:101224001A85FB68504ADA6279897B693A6AF868F8
:1012340000F09CF80346002B01D001238DE000232D
:101244003B61FB681B685B693B61FB681B689B69CE
:101254003B613B6966E07A69396AF86800F022FA12
:101264000346002B0DD0FB681B6C042B07D1FB68D5
:101274001B681A68FB681B6842F400721A60012339
:101284006BE0FB685B6A1A78FB681B681A61FB6891
:101294005B6A5A1CFB685A62FB685B8D9BB2013B1C
:1012A4009AB2FB685A85FB681B8D013B9AB2FB68B6
:1012B4001A85FB681B685B6903F00403042B1BD1CC
:1012C400FB681B8D002B17D0FB685B6A1A78FB68E0
:1012D4001B681A61FB685B6A5A1CFB685A62FB68EC
:1012E4005B8D9BB2013B9AB2FB685A85FB681B8DF0
:1012F400013B9AB2FB681A857A69396AF86800F08A
:1013040019FA0346002B0DD0FB681B6C042B07D184
:10131400FB681B681A68FB681B6842F400721A6059
:1013240001231AE0FB681B8D002B94D1FB681B681A
:101334001A68FB681B6842F400721A60FB6820227A
:1013440083F83D20FB68002283F83E20FB680022DE
:1013540083F83C20002300E0022318461837BD46DA
:1013640080BD00BF020010000000FFFF80B588B000
:1013740002AFF8607A603B600B467B81FB68DB6AF6
:101384007B617B69082B06D07B69012B03D07B69C9
:1013940013F5803F08D1FB681B681A68FB681B685B
:1013A40042F480721A600BE0FB681B6B122B07D1AE
:1013B400FB681B681A68FB681B6842F480721A6039
:1013C4003B6800937B6800224FF00111F86800F03D
:1013D4004FF80346002B0DD0FB681B681B6803F411
:1013E4008073B3F5807F03D1FB684FF400721A64F5
:1013F400032335E0FB681B69B3F5804F08D17B8973
:10140400DBB21A46FB681B6802F0FE021A611BE09D
:101414007B89DB11DBB203F00603DBB263F00F035D
:10142400DAB2FB681B681A613B687A680E49F8688F
:1014340000F098F80346002B01D0012310E07B89CB
:10144400DAB2FB681B681A613B687A680749F86876
:1014540000F088F80346002B01D0012300E00023AC
:1014640018461837BD4680BD08000100020001007F
:1014740080B584B000AFF860B9603B601346FB717F
:1014840048E03B68B3F1FF3F44D0FFF783FA0246DC
:10149400BB69D31A3A689A4202D33B68002B39D10C
:1014A400BB681B0CDBB2012B0DD1FB681B685B69AD
:1014B400DA43BB6813409BB2002B0CBF012300230B
:1014C400DBB21A460CE0FB681B689B69DA43BB6815
:1014D40013409BB2002B0CBF01230023DBB21A463E
:1014E400FB799A4216D1FB6800221A63FB6820221A
:1014F40083F83D20FB68002283F83E20FB681B6CC8
:1015040043F02002FB681A64FB68002283F83C2045
:10151400012323E0BB681B0CDBB2012B0DD1FB685C
:101524001B685B69DA43BB6813409BB2002B0CBF9A
:1015340001230023DBB21A460CE0FB681B689B699D
:10154400DA43BB6813409BB2002B0CBF012300237A
:10155400DBB21A46FB799A4293D00023184610371F
:10156400BD4680BD80B584B000AFF860B9607A60D4
:101574003B6071E0FB681B685B6903F48063B3F54F
:10158400806F23D1FB681B681A68FB681B6842F4F0
:1015940000721A60FB681B686FF480625A61FB6812
:1015A40000221A63FB68202283F83D20FB68002296
:1015B40083F83E20FB681B6C43F00402FB681A644A
:1015C400FB68002283F83C20012367E07B68B3F1C9
:1015D400FF3F41D0FFF7DEF902463B68D31A7A6831
:1015E4009A4202D37B68002B36D1BB681B0CDBB25A
:1015F400012B0CD1FB681B685B69DA43BB681340A1
:101604009BB2002B14BF01230023DBB20BE0FB6869
:101614001B689B69DA43BB6813409BB2002B14BF61
:1016240001230023DBB2002B16D0FB6800221A63CF
:10163400FB68202283F83D20FB68002283F83E20CB
:10164400FB681B6C43F02002FB681A64FB680022F1
:1016540083F83C20012321E0BB681B0CDBB2012B87
:101664000CD1FB681B685B69DA43BB6813409BB20F
:10167400002B14BF01230023DBB20BE0FB681B68C3
:101684009B69DA43BB6813409BB2002B14BF012350
:101694000023DBB2002B7FF46DAF00231846103714
:1016A400BD4680BD80B584B000AFF860B9607A6093
:1016B40034E0F86800F086F80346002B01D00123DB
:1016C40034E0BB68B3F1FF3F28D0FFF763F902466B
:1016D4007B68D31ABA689A4202D3BB68002B1DD127
:1016E400FB681B685B6903F08003802B16D0FB68E2
:1016F40000221A63FB68202283F83D20FB68002245
:1017040083F83E20FB681B6C43F02002FB681A64DC
:10171400FB68002283F83C20012307E0FB681B6878
:101724005B6903F08003802BC3D100231846103774
:10173400BD4680BD80B584B000AFF860B9607A6002
:1017440034E0F86800F03EF80346002B01D0012392
:1017540034E0BB68B3F1FF3F28D0FFF71BF9024622
:101764007B68D31ABA689A4202D3BB68002B1DD196
:10177400FB681B685B6903F00403042B16D0FB6849
:1017840000221A63FB68202283F83D20FB680022B4
:1017940083F83E20FB681B6C43F02002FB681A644C
:1017A400FB68002283F83C20012307E0FB681B68E8
:1017B4005B6903F00403042BC3D1002318461037DC
:1017C400BD4680BD80B483B000AF78607B681B6881
:1017D4005B6903F48063B3F5806F1BD17B681B687E
:1017E4006FF480625A617B6800221A637B6820224E
:1017F40083F83D207B68002283F83E207B681B6CC5
:1018040043F004027B681A647B68002283F83C205E
:10181400012300E0002318460C37BD465DF8047B25
:101824007047000080B584B000AF786039607B6891
:10183400002B01D10123CCE0684B1B6803F00F039C
:101844003A689A420CD9654B3A68D2B21A70634B23
:101854001B6803F00F033A689A4201D00123B8E0F1
:101864007B681B6803F00203002B20D07B681B6895
:1018740003F00403002B05D0594B9B68584A43F4EA
:10188400E05393607B681B6803F00803002B05D0CA
:10189400534B9B68524A43F460439360504B9B689C
:1018A40023F0F0027B689B684D4913438B607B688F
:1018B4001B6803F00103002B44D07B685B68012B99
:1018C40007D1474B1B6803F40033002B19D10123C4
:1018D4007FE07B685B68022B03D07B685B68032B2B
:1018E40007D13F4B1B6803F00073002B09D1012380
:1018F4006FE03B4B1B6803F00203002B01D1012373
:1019040067E0374B9B6823F003027B685B683449CC
:1019140013438B60FFF73EF8F8600AE0FFF73AF8EC
:101924000246FB68D31A41F28832934201D9032359
:101934004FE02B4B9B6803F00C027B685B689B00B9
:101944009A42EBD1254B1B6803F00F033A689A4285
:101954000CD2224B3A68D2B21A70204B1B6803F0A7
:101964000F033A689A4201D0012332E07B681B6876
:1019740003F00403002B08D0194B9B6823F4E052B6
:101984007B68DB68164913438B607B681B6803F034
:101994000803002B09D0124B9B6823F460427B6838
:1019A4001B69DB000E4913438B6000F041F80246CB
:1019B4000B4B9B681B0903F00F030A49CB5C22FA0B
:1019C40003F3094A1360094B1B681846FEF79EFF90
:1019D400002318461037BD4680BD00BF003C0240BE
:1019E40000380240342300080400002008000020CE
:1019F40080B400AF034B1B681846BD465DF8047BFA
:101A0400704700BF0400002080B500AFFFF7F0FF6F
:101A14000246054B9B689B0A03F007030349CB5C12
:101A240022FA03F3184680BD00380240442300081C
:101A34002DE9B04FA6B000AF0023C7F88C300023C7
:101A4400C7F894300023C7F888300023C7F88430DF
:101A54000023C7F89030C84B9B6803F00C030C2B91
:101A640000F27E8101A252F823F000BFA51A0008FB
:101A7400651D0008651D0008651D0008AD1A0008F5
:101A8400651D0008651D0008651D0008B51A0008DD
:101A9400651D0008651D0008651D00081F1C000861
:101AA400B64BC7F890305FE1B54BC7F890305BE1B7
:101AB400B14B5B6803F03F03C7F88C30AE4B5B68F7
:101AC40003F48003002B31D0AB4B5B689B090022ED
:101AD400BB66FA66BB6EC3F308033B6600237B66F2
:101AE400A74BD7E918452A4603FB02F200232146F7
:101AF40001FB03F31344A24A2146A1FB0212FA6735
:101B04000A46BA67FA6F1344FB67D7F88C30002291
:101B1400BB65FA65D7E91623D7E91E01FEF770FB0A
:101B240002460B461346C7F8943064E0924B5B6858
:101B34009B0900223B657A653B6DC3F30803BB64D4
:101B44000023FB64D7E9124522462B464FF00000E0
:101B54004FF00001590141EAD261500102460B469F
:101B64002146511A3961294663EB01037B614FF029
:101B740000024FF00003D7E904AB59468B015146EC
:101B840043EA916351468A015146B2EB0108594632
:101B940063EB01094FF000024FF000034FEAC90361
:101BA40043EA58734FEAC80290469946234618EB15
:101BB4000303BB602B4649EB0303FB604FF00002B9
:101BC4004FF00003D7E9024529468B02214643EA38
:101BD400915321468A0210461946D7F88C300022C8
:101BE4003B647A64D7E91023FEF70AFB02460B46EE
:101BF4001346C7F89430604B5B681B0C03F0030377
:101C040001335B00C7F88830D7F89420D7F88830C0
:101C1400B2FBF3F3C7F89030A6E0574B5B6803F0D0
:101C24003F03C7F88C30544B5B6803F48003002BEC
:101C34002AD0514B5B689B090022BB63FA63BB6BE0
:101C4400C3F3080000214E4B03FB01F2002300FB09
:101C540003F313444A4AA0FB02127A670A463A671E
:101C64007A6F13447B67D7F88C3000223B637A6326
:101C7400D7E90C23D7E91C01FEF7C2FA02460B464A
:101C84001346C7F894305BE03B4B5B689B0900222A
:101C9400BB62FA62BB6AC3F308033B6200237B6244
:101CA400D7E9088942464B464FF000004FF0000147
:101CB400590141EAD261500102460B464146B2EB5A
:101CC400010A494663EB010B4FF000024FF0000399
:101CD4004FEA8B1343EA9A634FEA8A12B2EB0A047F
:101CE40063EB0B054FF000024FF00003EB0043EAF7
:101CF4005473E20014461D464346E3183B604B46CA
:101D040045EB03037B604FF000024FF00003D7E97B
:101D1400004529468B02214643EA915321468A0213
:101D240010461946D7F88C300022BB61FA61D7E916
:101D34000623FEF765FA02460B461346C7F89430AD
:101D44000D4B5B681B0F03F00703C7F88430D7F80B
:101D54009420D7F88430B2FBF3F3C7F8903003E053
:101D6400064BC7F8903000BFD7F890301846983724
:101D7400BD46BDE8B08F00BF003802400024F40027
:101D840040787D0180B586B000AF78607B68002B19
:101D940001D101238DE27B681B6803F00103002B52
:101DA40000F08380944B9B6803F00C03042B19D040
:101DB400914B9B6803F00C03082B06D18E4B5B6898
:101DC40003F48003B3F5800F0CD08B4B9B6803F0B6
:101DD4000C030C2B12D1884B5B6803F48003B3F51E
:101DE400800F0BD1844B1B6803F40033002B5BD0B2
:101DF4007B685B68002B57D101235AE27B685B68E0
:101E0400B3F5803F06D17C4B1B687B4A43F4803397
:101E140013601DE07B685B68B3F5A02F0CD1764B93
:101E24001B68754A43F480231360734B1B68724A22
:101E340043F4803313600BE06F4B1B686E4A23F44A
:101E4400803313606C4B1B686B4A23F4802313604C
:101E54007B685B68002B13D0FEF79CFD386108E0BB
:101E6400FEF798FD02463B69D31A642B01D903237C
:101E74001FE2614B1B6803F40033002BF0D014E025
:101E8400FEF788FD386108E0FEF784FD02463B69F1
:101E9400D31A642B01D903230BE2574B1B6803F4B9
:101EA4000033002BF0D100E000BF7B681B6803F017
:101EB4000203002B6FD0504B9B6803F00C03002BE4
:101EC40017D04D4B9B6803F00C03082B05D14A4BEC
:101ED4005B6803F48003002B0BD0474B9B6803F033
:101EE4000C030C2B1CD1444B5B6803F48003002BC4
:101EF40016D1414B1B6803F00203002B05D07B680D
:101F0400DB68012B01D00123D3E13B4B1B6823F099
:101F1400F8027B681B69DB00374913430B603AE026
:101F24007B68DB68002B20D0344B01221A60FEF75B
:101F340031FD386108E0FEF72DFD02463B69D31AF6
:101F4400022B01D90323B4E12B4B1B6803F00203DA
:101F5400002BF0D0284B1B6823F0F8027B681B6928
:101F6400DB00254913430B6015E0244B00221A6063
:101F7400FEF710FD386108E0FEF70CFD02463B69F0
:101F8400D31A022B01D9032393E11B4B1B6803F0E3
:101F94000203002BF0D17B681B6803F00803002BBD
:101FA40036D07B685B69002B16D0154B01221A6072
:101FB400FEF7F0FC386108E0FEF7ECFC02463B69F2
:101FC400D31A022B01D9032373E10B4B5B6F03F08C
:101FD4000203002BF0D01BE0094B00221A60FEF72D
:101FE400D9FC38610EE0FEF7D5FC02463B69D31AF2
:101FF400022B07D903235CE100380240000047426A
:10200400800E47428A4B5B6F03F00203002BEAD138
:102014007B681B6803F00403002B00F09780002307
:10202400FB75834B1B6C03F08053002B0FD10023F3
:10203400BB607F4B1B6C7E4A43F0805313647C4B24
:102044001B6C03F08053BB60BB680123FB75794BA9
:102054001B6803F48073002B18D1764B1B68754AF8
:1020640043F480731360FEF795FC386108E0FEF7D3
:1020740091FC02463B69D31A022B01D9032318E1D0
:102084006C4B1B6803F48073002BF0D07B689B6857
:10209400012B06D1664B1B6F654A43F0010313679E
:1020A4001CE07B689B68052B0CD1614B1B6F604A5D
:1020B40043F0040313675E4B1B6F5D4A43F0010357
:1020C40013670BE05A4B1B6F594A23F00103136744
:1020D400574B1B6F564A23F0040313677B689B68B6
:1020E400002B15D0FEF756FC38610AE0FEF752FCCF
:1020F40002463B69D31A41F28832934201D9032341
:10210400D7E04B4B1B6F03F00203002BEED014E01F
:10211400FEF740FC38610AE0FEF73CFC02463B69EE
:10212400D31A41F28832934201D90323C1E0404BD0
:102134001B6F03F00203002BEED1FB7D012B05D1B5
:102144003B4B1B6C3A4A23F0805313647B689B69B6
:10215400002B00F0AD80364B9B6803F00C03082B7A
:1021640060D07B689B69022B45D1334B00221A60F7
:10217400FEF710FC386108E0FEF70CFC02463B69F0
:10218400D31A022B01D9032393E0294B1B6803F0D4
:102194000073002BF0D17B68DA697B681B6A1A43F1
:1021A4007B685B6A9B011A437B689B6A5B08013B03
:1021B4001B041A437B68DB6A1B061A437B681B6B90
:1021C4001B071B4913434B601B4B01221A60FEF78C
:1021D400E1FB386108E0FEF7DDFB02463B69D31AF8
:1021E400022B01D9032364E0114B1B6803F0007335
:1021F400002BF0D05CE0104B00221A60FEF7CAFB03
:10220400386108E0FEF7C6FB02463B69D31A022B8D
:1022140001D903234DE0064B1B6803F00073002B28
:10222400F0D145E07B689B69012B07D1012340E095
:102234000038024000700040600047421F4B5B685A
:10224400FB607B689B69012B30D0FB6803F4800240
:102254007B68DB699A4229D1FB6803F03F027B6803
:102264001B6A9A4222D1FA6847F6C07313407A680F
:10227400526A9201934219D1FB6803F440327B689D
:102284009B6A5B08013B1B049A420FD1FB6803F075
:1022940070627B68DB6A1B069A4207D1FB6803F015
:1022A400E0427B681B6B1B079A4201D0012300E0CC
:1022B400002318461837BD4680BD00BF00380240D1
:1022C40002440346934200D1704703F8011BF9E727
:1022D40070B50D4D0D4C641BA4100026A64209D107
:1022E4000B4D0C4C00F018F8641BA4100026A642F9
:1022F40005D170BD55F8043B98470136EEE755F813
:10230400043B98470136F2E754230008542300089D
:102314005423000858230008F8B500BFF8BC08BCD3
:102324009E467047F8B500BFF8BC08BC9E4670478F
:102334000000000000000000010203040607080971
:08234400000000000102030487
:08234C00E8DEFF7F0100000044
:04235400E901000893
:04235800C5010008B3
:10235C00010000000024F400100000000100000047
:04000005080008796E
:00000001FF
